{
  "contractName": "DocumentManager",
  "abi": [
    {
      "anonymous": false,
      "inputs": [
        {
          "indexed": true,
          "internalType": "bytes32",
          "name": "_hash",
          "type": "bytes32"
        },
        {
          "indexed": false,
          "internalType": "uint256",
          "name": "_blockNumber",
          "type": "uint256"
        },
        {
          "indexed": false,
          "internalType": "string",
          "name": "_name",
          "type": "string"
        },
        {
          "indexed": false,
          "internalType": "bool",
          "name": "_importantOrder",
          "type": "bool"
        },
        {
          "indexed": false,
          "internalType": "bool",
          "name": "_filesEncrypted",
          "type": "bool"
        },
        {
          "indexed": true,
          "internalType": "address",
          "name": "_author",
          "type": "address"
        },
        {
          "indexed": false,
          "internalType": "address[]",
          "name": "_signers",
          "type": "address[]"
        },
        {
          "components": [
            {
              "internalType": "bytes32",
              "name": "digest",
              "type": "bytes32"
            },
            {
              "internalType": "uint8",
              "name": "hashFunction",
              "type": "uint8"
            },
            {
              "internalType": "uint8",
              "name": "size",
              "type": "uint8"
            }
          ],
          "indexed": false,
          "internalType": "struct DocumentManager.Multihash[]",
          "name": "_files",
          "type": "tuple[]"
        }
      ],
      "name": "DocumentCreated",
      "type": "event"
    },
    {
      "anonymous": false,
      "inputs": [
        {
          "indexed": true,
          "internalType": "bytes32",
          "name": "_hash",
          "type": "bytes32"
        },
        {
          "indexed": false,
          "internalType": "string",
          "name": "oldName",
          "type": "string"
        },
        {
          "indexed": false,
          "internalType": "string",
          "name": "newName",
          "type": "string"
        }
      ],
      "name": "DocumentNameChanged",
      "type": "event"
    },
    {
      "anonymous": false,
      "inputs": [
        {
          "indexed": true,
          "internalType": "bytes32",
          "name": "_hash",
          "type": "bytes32"
        },
        {
          "indexed": false,
          "internalType": "address",
          "name": "_author",
          "type": "address"
        }
      ],
      "name": "DocumentOpened",
      "type": "event"
    },
    {
      "anonymous": false,
      "inputs": [
        {
          "indexed": false,
          "internalType": "bytes32",
          "name": "_hash",
          "type": "bytes32"
        },
        {
          "indexed": true,
          "internalType": "address",
          "name": "_signer",
          "type": "address"
        }
      ],
      "name": "DocumentRequiresSignature",
      "type": "event"
    },
    {
      "anonymous": false,
      "inputs": [
        {
          "indexed": true,
          "internalType": "bytes32",
          "name": "_hash",
          "type": "bytes32"
        },
        {
          "indexed": true,
          "internalType": "address[]",
          "name": "_signers",
          "type": "address[]"
        }
      ],
      "name": "DocumentSent",
      "type": "event"
    },
    {
      "anonymous": false,
      "inputs": [
        {
          "indexed": true,
          "internalType": "bytes32",
          "name": "_hash",
          "type": "bytes32"
        },
        {
          "indexed": false,
          "internalType": "address",
          "name": "_author",
          "type": "address"
        }
      ],
      "name": "DocumentSigned",
      "type": "event"
    },
    {
      "anonymous": false,
      "inputs": [
        {
          "indexed": true,
          "internalType": "bytes32",
          "name": "_hash",
          "type": "bytes32"
        },
        {
          "indexed": false,
          "internalType": "address[]",
          "name": "_signers",
          "type": "address[]"
        }
      ],
      "name": "DocumentSignersUpdated",
      "type": "event"
    },
    {
      "inputs": [
        {
          "internalType": "bytes32",
          "name": "_hash",
          "type": "bytes32"
        },
        {
          "internalType": "string",
          "name": "_name",
          "type": "string"
        },
        {
          "internalType": "address[]",
          "name": "_signers",
          "type": "address[]"
        },
        {
          "components": [
            {
              "internalType": "bytes32",
              "name": "digest",
              "type": "bytes32"
            },
            {
              "internalType": "uint8",
              "name": "hashFunction",
              "type": "uint8"
            },
            {
              "internalType": "uint8",
              "name": "size",
              "type": "uint8"
            }
          ],
          "internalType": "struct DocumentManager.Multihash[]",
          "name": "_files",
          "type": "tuple[]"
        },
        {
          "internalType": "bool",
          "name": "_importantOrder",
          "type": "bool"
        },
        {
          "internalType": "bool",
          "name": "_filesEncrypted",
          "type": "bool"
        }
      ],
      "name": "create",
      "outputs": [],
      "stateMutability": "nonpayable",
      "type": "function"
    },
    {
      "inputs": [
        {
          "internalType": "bytes32",
          "name": "_hash",
          "type": "bytes32"
        },
        {
          "internalType": "string",
          "name": "_newName",
          "type": "string"
        }
      ],
      "name": "changeName",
      "outputs": [],
      "stateMutability": "nonpayable",
      "type": "function"
    },
    {
      "inputs": [
        {
          "internalType": "bytes32",
          "name": "_hash",
          "type": "bytes32"
        },
        {
          "internalType": "address[]",
          "name": "_signers",
          "type": "address[]"
        },
        {
          "internalType": "bool",
          "name": "_importantOrder",
          "type": "bool"
        }
      ],
      "name": "updateSigners",
      "outputs": [],
      "stateMutability": "nonpayable",
      "type": "function"
    },
    {
      "inputs": [
        {
          "internalType": "bytes32",
          "name": "_hash",
          "type": "bytes32"
        }
      ],
      "name": "sendDocument",
      "outputs": [],
      "stateMutability": "nonpayable",
      "type": "function"
    },
    {
      "inputs": [
        {
          "internalType": "bytes32",
          "name": "_hash",
          "type": "bytes32"
        }
      ],
      "name": "sign",
      "outputs": [],
      "stateMutability": "nonpayable",
      "type": "function"
    },
    {
      "inputs": [
        {
          "internalType": "bytes32",
          "name": "_hash",
          "type": "bytes32"
        }
      ],
      "name": "openDocument",
      "outputs": [],
      "stateMutability": "nonpayable",
      "type": "function"
    },
    {
      "inputs": [
        {
          "internalType": "bytes32",
          "name": "_hash",
          "type": "bytes32"
        }
      ],
      "name": "getDocumentStatus",
      "outputs": [
        {
          "internalType": "enum DocumentManager.DocumentStatus",
          "name": "",
          "type": "uint8"
        },
        {
          "internalType": "uint256",
          "name": "",
          "type": "uint256"
        }
      ],
      "stateMutability": "view",
      "type": "function",
      "constant": true
    },
    {
      "inputs": [
        {
          "internalType": "bytes32",
          "name": "_hash",
          "type": "bytes32"
        }
      ],
      "name": "getDocument",
      "outputs": [
        {
          "internalType": "uint256",
          "name": "",
          "type": "uint256"
        },
        {
          "internalType": "uint256",
          "name": "",
          "type": "uint256"
        },
        {
          "internalType": "bool",
          "name": "",
          "type": "bool"
        },
        {
          "internalType": "address",
          "name": "",
          "type": "address"
        },
        {
          "internalType": "string",
          "name": "",
          "type": "string"
        },
        {
          "internalType": "address[]",
          "name": "",
          "type": "address[]"
        },
        {
          "internalType": "enum DocumentManager.DocumentStatus",
          "name": "",
          "type": "uint8"
        }
      ],
      "stateMutability": "view",
      "type": "function",
      "constant": true
    }
  ],
  "bytecode": "0x608060405234801561001057600080fd5b50612966806100206000396000f3fe608060405234801561001057600080fd5b50600436106100885760003560e01c806391cbeeed1161005b57806391cbeeed146100fd578063a316ef8614610119578063acf7618214610135578063b10d6b411461016657610088565b80630523e6171461008d5780634c970668146100a9578063799cd333146100c5578063817293aa146100e1575b600080fd5b6100a760048036038101906100a29190611959565b61019c565b005b6100c360048036038101906100be9190611a48565b6103d7565b005b6100df60048036038101906100da9190611a48565b610750565b005b6100fb60048036038101906100f69190611a48565b610c16565b005b61011760048036038101906101129190611a75565b610cac565b005b610133600480360381019061012e9190611ad5565b610efd565b005b61014f600480360381019061014a9190611a48565b611212565b60405161015d929190611bd9565b60405180910390f35b610180600480360381019061017b9190611a48565b6113e7565b6040516101939796959493929190611da9565b60405180910390f35b60008060008b815260200190815260200160002060000154146101f4576040517f08c379a00000000000000000000000000000000000000000000000000000000081526004016101eb90611e72565b60405180910390fd5b6000888890501161023a576040517f08c379a000000000000000000000000000000000000000000000000000000000815260040161023190611ede565b60405180910390fd5b60008686905011610280576040517f08c379a000000000000000000000000000000000000000000000000000000000815260040161027790611f4a565b60405180910390fd5b600084849050116102c6576040517f08c379a00000000000000000000000000000000000000000000000000000000081526004016102bd90611fb6565b60405180910390fd5b60008060008b8152602001908152602001600020905043816000018190555088888260030191906102f892919061166c565b50338160020160006101000a81548173ffffffffffffffffffffffffffffffffffffffff021916908373ffffffffffffffffffffffffffffffffffffffff160217905550868682600401919061034f9291906116f2565b50828160020160146101000a81548160ff0219169083151502179055503373ffffffffffffffffffffffffffffffffffffffff168a7f5f86aa80e947935749b097064634d2b33bd36d5a886cc85cc46225b4ca8287c8438c8c88888e8e8e8e6040516103c399989796959493929190612250565b60405180910390a350505050505050505050565b806000806000838152602001908152602001600020600001541415610431576040517f08c379a000000000000000000000000000000000000000000000000000000000815260040161042890612318565b60405180910390fd5b81338073ffffffffffffffffffffffffffffffffffffffff1660008084815260200190815260200160002060020160009054906101000a900473ffffffffffffffffffffffffffffffffffffffff1673ffffffffffffffffffffffffffffffffffffffff16146104d6576040517f08c379a00000000000000000000000000000000000000000000000000000000081526004016104cd90612384565b60405180910390fd5b83600060028111156104eb576104ea611b49565b5b600080838152602001908152602001600020600501600080600085815260200190815260200160002060040160008154811061052a576105296123a4565b5b9060005260206000200160009054906101000a900473ffffffffffffffffffffffffffffffffffffffff1673ffffffffffffffffffffffffffffffffffffffff1673ffffffffffffffffffffffffffffffffffffffff16815260200190815260200160002060009054906101000a900460ff1660028111156105af576105ae611b49565b5b146105ef576040517f08c379a00000000000000000000000000000000000000000000000000000000081526004016105e69061241f565b60405180910390fd5b60005b600080878152602001908152602001600020600401805490508110156106f157600160008088815260200190815260200160002060050160008060008a81526020019081526020016000206004018481548110610652576106516123a4565b5b9060005260206000200160009054906101000a900473ffffffffffffffffffffffffffffffffffffffff1673ffffffffffffffffffffffffffffffffffffffff1673ffffffffffffffffffffffffffffffffffffffff16815260200190815260200160002060006101000a81548160ff021916908360028111156106d9576106d8611b49565b5b021790555080806106e99061246e565b9150506105f2565b5060008086815260200190815260200160002060040160405161071491906125d5565b6040518091039020857ff1ec4e03d11d9ed9162f5554880a2a23210b7fed0a351e604abe7b73e826c81b60405160405180910390a35050505050565b8060008060008381526020019081526020016000206000015414156107aa576040517f08c379a00000000000000000000000000000000000000000000000000000000081526004016107a190612318565b60405180910390fd5b8133600060028111156107c0576107bf611b49565b5b60008084815260200190815260200160002060050160008373ffffffffffffffffffffffffffffffffffffffff1673ffffffffffffffffffffffffffffffffffffffff16815260200190815260200160002060009054906101000a900460ff16600281111561083257610831611b49565b5b1415610873576040517f08c379a000000000000000000000000000000000000000000000000000000000815260040161086a90612638565b60405180910390fd5b83336001600281111561088957610888611b49565b5b60008084815260200190815260200160002060050160008373ffffffffffffffffffffffffffffffffffffffff1673ffffffffffffffffffffffffffffffffffffffff16815260200190815260200160002060009054906101000a900460ff1660028111156108fb576108fa611b49565b5b1461093b576040517f08c379a0000000000000000000000000000000000000000000000000000000008152600401610932906126a4565b60405180910390fd5b600080600088815260200190815260200160002090508060020160149054906101000a900460ff1615610a5657600081600401826001015481548110610984576109836123a4565b5b9060005260206000200160009054906101000a900473ffffffffffffffffffffffffffffffffffffffff169050600073ffffffffffffffffffffffffffffffffffffffff168173ffffffffffffffffffffffffffffffffffffffff1614610a54573373ffffffffffffffffffffffffffffffffffffffff168173ffffffffffffffffffffffffffffffffffffffff1614610a53576040517f08c379a0000000000000000000000000000000000000000000000000000000008152600401610a4a90612710565b60405180910390fd5b5b505b60028160050160003373ffffffffffffffffffffffffffffffffffffffff1673ffffffffffffffffffffffffffffffffffffffff16815260200190815260200160002060006101000a81548160ff02191690836002811115610abb57610aba611b49565b5b0217905550806001016000815480929190610ad59061246e565b9190505550867ffc566ede6102b78343776b8847b3fac426f2ca3c96a1b9ead9faa5994b22b1ed33604051610b0a9190612730565b60405180910390a28060020160149054906101000a900460ff168015610b3a575080600401805490508160010154105b15610c0d57600081600401826001015481548110610b5b57610b5a6123a4565b5b9060005260206000200160009054906101000a900473ffffffffffffffffffffffffffffffffffffffff169050600073ffffffffffffffffffffffffffffffffffffffff168173ffffffffffffffffffffffffffffffffffffffff1614610c0b578073ffffffffffffffffffffffffffffffffffffffff167fc1e3af02ea2483b8268571ba3abd2e784a7f63702f268c700829e14752d6f16a89604051610c02919061275a565b60405180910390a25b505b50505050505050565b806000806000838152602001908152602001600020600001541415610c70576040517f08c379a0000000000000000000000000000000000000000000000000000000008152600401610c6790612318565b60405180910390fd5b817fd420121be47295bb601834d30fb33e15cd73af19f67ecd5a533b96ee644a6ab133604051610ca09190612730565b60405180910390a25050565b826000806000838152602001908152602001600020600001541415610d06576040517f08c379a0000000000000000000000000000000000000000000000000000000008152600401610cfd90612318565b60405180910390fd5b83338073ffffffffffffffffffffffffffffffffffffffff1660008084815260200190815260200160002060020160009054906101000a900473ffffffffffffffffffffffffffffffffffffffff1673ffffffffffffffffffffffffffffffffffffffff1614610dab576040517f08c379a0000000000000000000000000000000000000000000000000000000008152600401610da290612384565b60405180910390fd5b60008585905011610df1576040517f08c379a0000000000000000000000000000000000000000000000000000000008152600401610de8906127c1565b60405180910390fd5b60008060008881526020019081526020016000206003018054610e1390612810565b80601f0160208091040260200160405190810160405280929190818152602001828054610e3f90612810565b8015610e8c5780601f10610e6157610100808354040283529160200191610e8c565b820191906000526020600020905b815481529060010190602001808311610e6f57829003601f168201915b5050505050905085856000808a81526020019081526020016000206003019190610eb792919061166c565b50867f9ef4996d1ffd8fe2ea156016214459380c858e8834a2b940e5b6af758ac82273828888604051610eec93929190612842565b60405180910390a250505050505050565b836000806000838152602001908152602001600020600001541415610f57576040517f08c379a0000000000000000000000000000000000000000000000000000000008152600401610f4e90612318565b60405180910390fd5b84338073ffffffffffffffffffffffffffffffffffffffff1660008084815260200190815260200160002060020160009054906101000a900473ffffffffffffffffffffffffffffffffffffffff1673ffffffffffffffffffffffffffffffffffffffff1614610ffc576040517f08c379a0000000000000000000000000000000000000000000000000000000008152600401610ff390612384565b60405180910390fd5b866000600281111561101157611010611b49565b5b60008083815260200190815260200160002060050160008060008581526020019081526020016000206004016000815481106110505761104f6123a4565b5b9060005260206000200160009054906101000a900473ffffffffffffffffffffffffffffffffffffffff1673ffffffffffffffffffffffffffffffffffffffff1673ffffffffffffffffffffffffffffffffffffffff16815260200190815260200160002060009054906101000a900460ff1660028111156110d5576110d4611b49565b5b14611115576040517f08c379a000000000000000000000000000000000000000000000000000000000815260040161110c9061241f565b60405180910390fd5b6000878790501161115b576040517f08c379a000000000000000000000000000000000000000000000000000000000815260040161115290611f4a565b60405180910390fd5b600080898152602001908152602001600020600401600061117c9190611792565b86866000808b815260200190815260200160002060040191906111a09291906116f2565b50846000808a815260200190815260200160002060020160146101000a81548160ff021916908315150217905550877f9a3682ec2ea5eec5361a73a5e8e5c2bcf88dcf4b2a9fe8f37d751688a9224cc0888860405161120092919061287b565b60405180910390a25050505050505050565b60008082600080600083815260200190815260200160002060000154141561126f576040517f08c379a000000000000000000000000000000000000000000000000000000000815260040161126690612318565b60405180910390fd5b6000600281111561128357611282611b49565b5b60008086815260200190815260200160002060050160008060008881526020019081526020016000206004016000815481106112c2576112c16123a4565b5b9060005260206000200160009054906101000a900473ffffffffffffffffffffffffffffffffffffffff1673ffffffffffffffffffffffffffffffffffffffff1673ffffffffffffffffffffffffffffffffffffffff16815260200190815260200160002060009054906101000a900460ff16600281111561134757611346611b49565b5b141561136e57600080600086815260200190815260200160002060010154925092506113e1565b600080858152602001908152602001600020600401805490506000808681526020019081526020016000206001015414156113c457600260008086815260200190815260200160002060010154925092506113e1565b600160008086815260200190815260200160002060010154925092505b50915091565b600080600080606080600087600080600083815260200190815260200160002060000154141561144c576040517f08c379a000000000000000000000000000000000000000000000000000000000815260040161144390612318565b60405180910390fd5b60008060008b815260200190815260200160002090506000803073ffffffffffffffffffffffffffffffffffffffff1663acf761828d6040518263ffffffff1660e01b815260040161149e919061275a565b604080518083038186803b1580156114b557600080fd5b505afa1580156114c9573d6000803e3d6000fd5b505050506040513d601f19601f820116820180604052508101906114ed91906128f0565b80925081935050508260000154818460020160149054906101000a900460ff168560020160009054906101000a900473ffffffffffffffffffffffffffffffffffffffff1686600301876004018782805461154790612810565b80601f016020809104026020016040519081016040528092919081815260200182805461157390612810565b80156115c05780601f10611595576101008083540402835291602001916115c0565b820191906000526020600020905b8154815290600101906020018083116115a357829003601f168201915b505050505092508180548060200260200160405190810160405280929190818152602001828054801561164857602002820191906000526020600020905b8160009054906101000a900473ffffffffffffffffffffffffffffffffffffffff1673ffffffffffffffffffffffffffffffffffffffff16815260200190600101908083116115fe575b505050505091509a509a509a509a509a509a509a5050505050919395979092949650565b82805461167890612810565b90600052602060002090601f01602090048101928261169a57600085556116e1565b82601f106116b357803560ff19168380011785556116e1565b828001600101855582156116e1579182015b828111156116e05782358255916020019190600101906116c5565b5b5090506116ee91906117b3565b5090565b828054828255906000526020600020908101928215611781579160200282015b8281111561178057823573ffffffffffffffffffffffffffffffffffffffff168260006101000a81548173ffffffffffffffffffffffffffffffffffffffff021916908373ffffffffffffffffffffffffffffffffffffffff16021790555091602001919060010190611712565b5b50905061178e91906117b3565b5090565b50805460008255906000526020600020908101906117b091906117b3565b50565b5b808211156117cc5760008160009055506001016117b4565b5090565b600080fd5b600080fd5b6000819050919050565b6117ed816117da565b81146117f857600080fd5b50565b60008135905061180a816117e4565b92915050565b600080fd5b600080fd5b600080fd5b60008083601f84011261183557611834611810565b5b8235905067ffffffffffffffff81111561185257611851611815565b5b60208301915083600182028301111561186e5761186d61181a565b5b9250929050565b60008083601f84011261188b5761188a611810565b5b8235905067ffffffffffffffff8111156118a8576118a7611815565b5b6020830191508360208202830111156118c4576118c361181a565b5b9250929050565b60008083601f8401126118e1576118e0611810565b5b8235905067ffffffffffffffff8111156118fe576118fd611815565b5b60208301915083606082028301111561191a5761191961181a565b5b9250929050565b60008115159050919050565b61193681611921565b811461194157600080fd5b50565b6000813590506119538161192d565b92915050565b600080600080600080600080600060c08a8c03121561197b5761197a6117d0565b5b60006119898c828d016117fb565b99505060208a013567ffffffffffffffff8111156119aa576119a96117d5565b5b6119b68c828d0161181f565b985098505060408a013567ffffffffffffffff8111156119d9576119d86117d5565b5b6119e58c828d01611875565b965096505060608a013567ffffffffffffffff811115611a0857611a076117d5565b5b611a148c828d016118cb565b94509450506080611a278c828d01611944565b92505060a0611a388c828d01611944565b9150509295985092959850929598565b600060208284031215611a5e57611a5d6117d0565b5b6000611a6c848285016117fb565b91505092915050565b600080600060408486031215611a8e57611a8d6117d0565b5b6000611a9c868287016117fb565b935050602084013567ffffffffffffffff811115611abd57611abc6117d5565b5b611ac98682870161181f565b92509250509250925092565b60008060008060608587031215611aef57611aee6117d0565b5b6000611afd878288016117fb565b945050602085013567ffffffffffffffff811115611b1e57611b1d6117d5565b5b611b2a87828801611875565b93509350506040611b3d87828801611944565b91505092959194509250565b7f4e487b7100000000000000000000000000000000000000000000000000000000600052602160045260246000fd5b60038110611b8957611b88611b49565b5b50565b6000819050611b9a82611b78565b919050565b6000611baa82611b8c565b9050919050565b611bba81611b9f565b82525050565b6000819050919050565b611bd381611bc0565b82525050565b6000604082019050611bee6000830185611bb1565b611bfb6020830184611bca565b9392505050565b611c0b81611921565b82525050565b600073ffffffffffffffffffffffffffffffffffffffff82169050919050565b6000611c3c82611c11565b9050919050565b611c4c81611c31565b82525050565b600081519050919050565b600082825260208201905092915050565b60005b83811015611c8c578082015181840152602081019050611c71565b83811115611c9b576000848401525b50505050565b6000601f19601f8301169050919050565b6000611cbd82611c52565b611cc78185611c5d565b9350611cd7818560208601611c6e565b611ce081611ca1565b840191505092915050565b600081519050919050565b600082825260208201905092915050565b6000819050602082019050919050565b611d2081611c31565b82525050565b6000611d328383611d17565b60208301905092915050565b6000602082019050919050565b6000611d5682611ceb565b611d608185611cf6565b9350611d6b83611d07565b8060005b83811015611d9c578151611d838882611d26565b9750611d8e83611d3e565b925050600181019050611d6f565b5085935050505092915050565b600060e082019050611dbe600083018a611bca565b611dcb6020830189611bca565b611dd86040830188611c02565b611de56060830187611c43565b8181036080830152611df78186611cb2565b905081810360a0830152611e0b8185611d4b565b9050611e1a60c0830184611bb1565b98975050505050505050565b7f616c72656164795f747261636b65640000000000000000000000000000000000600082015250565b6000611e5c600f83611c5d565b9150611e6782611e26565b602082019050919050565b60006020820190508181036000830152611e8b81611e4f565b9050919050565b7f656d7074795f6e616d6500000000000000000000000000000000000000000000600082015250565b6000611ec8600a83611c5d565b9150611ed382611e92565b602082019050919050565b60006020820190508181036000830152611ef781611ebb565b9050919050565b7f656d7074795f7369676e65727300000000000000000000000000000000000000600082015250565b6000611f34600d83611c5d565b9150611f3f82611efe565b602082019050919050565b60006020820190508181036000830152611f6381611f27565b9050919050565b7f656d7074795f66696c6573000000000000000000000000000000000000000000600082015250565b6000611fa0600b83611c5d565b9150611fab82611f6a565b602082019050919050565b60006020820190508181036000830152611fcf81611f93565b9050919050565b82818337600083830152505050565b6000611ff18385611c5d565b9350611ffe838584611fd6565b61200783611ca1565b840190509392505050565b6000819050919050565b61202581611c31565b811461203057600080fd5b50565b6000813590506120428161201c565b92915050565b60006120576020840184612033565b905092915050565b6000602082019050919050565b60006120788385611cf6565b935061208382612012565b8060005b858110156120bc576120998284612048565b6120a38882611d26565b97506120ae8361205f565b925050600181019050612087565b5085925050509392505050565b600082825260208201905092915050565b6000819050919050565b60006120f360208401846117fb565b905092915050565b612104816117da565b82525050565b600060ff82169050919050565b6121208161210a565b811461212b57600080fd5b50565b60008135905061213d81612117565b92915050565b6000612152602084018461212e565b905092915050565b6121638161210a565b82525050565b6060820161217a60008301836120e4565b61218760008501826120fb565b506121956020830183612143565b6121a2602085018261215a565b506121b06040830183612143565b6121bd604085018261215a565b50505050565b60006121cf8383612169565b60608301905092915050565b600082905092915050565b6000606082019050919050565b60006121ff83856120c9565b935061220a826120da565b8060005b858110156122435761222082846121db565b61222a88826121c3565b9750612235836121e6565b92505060018101905061220e565b5085925050509392505050565b600060c082019050612265600083018c611bca565b8181036020830152612278818a8c611fe5565b90506122876040830189611c02565b6122946060830188611c02565b81810360808301526122a781868861206c565b905081810360a08301526122bc8184866121f3565b90509a9950505050505050505050565b7f6f6e6c795f747261636b65640000000000000000000000000000000000000000600082015250565b6000612302600c83611c5d565b915061230d826122cc565b602082019050919050565b60006020820190508181036000830152612331816122f5565b9050919050565b7f6f6e6c795f617574686f72000000000000000000000000000000000000000000600082015250565b600061236e600b83611c5d565b915061237982612338565b602082019050919050565b6000602082019050818103600083015261239d81612361565b9050919050565b7f4e487b7100000000000000000000000000000000000000000000000000000000600052603260045260246000fd5b7f6e6f745f6564697461626c650000000000000000000000000000000000000000600082015250565b6000612409600c83611c5d565b9150612414826123d3565b602082019050919050565b60006020820190508181036000830152612438816123fc565b9050919050565b7f4e487b7100000000000000000000000000000000000000000000000000000000600052601160045260246000fd5b600061247982611bc0565b91507fffffffffffffffffffffffffffffffffffffffffffffffffffffffffffffffff8214156124ac576124ab61243f565b5b600182019050919050565b600081549050919050565b600081905092915050565b60008190508160005260206000209050919050565b6124eb81611c31565b82525050565b60006124fd83836124e2565b60208301905092915050565b60008160001c9050919050565b600073ffffffffffffffffffffffffffffffffffffffff82169050919050565b600061254961254483612509565b612516565b9050919050565b600061255c8254612536565b9050919050565b6000600182019050919050565b600061257b826124b7565b61258581856124c2565b9350612590836124cd565b8060005b838110156125c8576125a582612550565b6125af88826124f1565b97506125ba83612563565b925050600181019050612594565b5085935050505092915050565b60006125e18284612570565b915081905092915050565b7f6f6e6c795f7369676e6572730000000000000000000000000000000000000000600082015250565b6000612622600c83611c5d565b915061262d826125ec565b602082019050919050565b6000602082019050818103600083015261265181612615565b9050919050565b7f6e6f745f616c6c6f7765645f746f5f7369676e00000000000000000000000000600082015250565b600061268e601383611c5d565b915061269982612658565b602082019050919050565b600060208201905081810360008301526126bd81612681565b9050919050565b7f6e6f5f73657175656e6365000000000000000000000000000000000000000000600082015250565b60006126fa600b83611c5d565b9150612705826126c4565b602082019050919050565b60006020820190508181036000830152612729816126ed565b9050919050565b60006020820190506127456000830184611c43565b92915050565b612754816117da565b82525050565b600060208201905061276f600083018461274b565b92915050565b7f656d7074795f6e65775f6e616d65000000000000000000000000000000000000600082015250565b60006127ab600e83611c5d565b91506127b682612775565b602082019050919050565b600060208201905081810360008301526127da8161279e565b9050919050565b7f4e487b7100000000000000000000000000000000000000000000000000000000600052602260045260246000fd5b6000600282049050600182168061282857607f821691505b6020821081141561283c5761283b6127e1565b5b50919050565b6000604082019050818103600083015261285c8186611cb2565b90508181036020830152612871818486611fe5565b9050949350505050565b6000602082019050818103600083015261289681848661206c565b90509392505050565b600381106128ac57600080fd5b50565b6000815190506128be8161289f565b92915050565b6128cd81611bc0565b81146128d857600080fd5b50565b6000815190506128ea816128c4565b92915050565b60008060408385031215612907576129066117d0565b5b6000612915858286016128af565b9250506020612926858286016128db565b915050925092905056fea264697066735822122062bacc4e1bb1d5f55330e3b8c69e31ccff18efdf3aeb790f2266063e264f7e0264736f6c63430008090033",
  "immutableReferences": {},
  "source": "// SPDX-License-Identifier: GPL-3.0\npragma solidity ^0.8.0;\n\ncontract DocumentManager {\n    enum DocumentStatus {\n        EDITING,\n        SIGNING,\n        FINISHED\n    }\n    enum SignatureStatus {\n        NOT_INITIALIZED,\n        AWAITING,\n        SIGNED\n    }\n\n    struct Multihash {\n        bytes32 digest;\n        uint8 hashFunction;\n        uint8 size;\n    }\n\n    struct Document {\n        uint256 blockNumber;\n        uint256 signaturesCount;\n        address author;\n        bool importantOrder;\n        string name;\n        address[] signers;\n        mapping(address => SignatureStatus) signed;\n    }\n\n    event DocumentCreated(\n        bytes32 indexed _hash,\n        uint256 _blockNumber,\n        string _name,\n        bool _importantOrder,\n        bool _filesEncrypted,\n        address indexed _author,\n        address[] _signers,\n        Multihash[] _files\n    );\n    event DocumentSigned(bytes32 indexed _hash, address _author);\n    event DocumentOpened(bytes32 indexed _hash, address _author);\n    event DocumentNameChanged(\n        bytes32 indexed _hash,\n        string oldName,\n        string newName\n    );\n    event DocumentSignersUpdated(bytes32 indexed _hash, address[] _signers);\n    event DocumentSent(bytes32 indexed _hash, address[] indexed _signers);\n    event DocumentRequiresSignature(bytes32 _hash, address indexed _signer);\n\n    mapping(bytes32 => Document) documents;\n\n    function create(\n        bytes32 _hash,\n        string calldata _name,\n        address[] calldata _signers,\n        Multihash[] calldata _files,\n        bool _importantOrder,\n        bool _filesEncrypted\n    ) external {\n        require(documents[_hash].blockNumber == 0, \"already_tracked\");\n        require(bytes(_name).length > 0, \"empty_name\");\n        require(_signers.length > 0, \"empty_signers\");\n        require(_files.length > 0, \"empty_files\");\n        Document storage d = documents[_hash];\n        d.blockNumber = block.number;\n        d.name = _name;\n        d.author = msg.sender;\n        d.signers = _signers;\n        d.importantOrder = _importantOrder;\n        emit DocumentCreated(\n            _hash,\n            block.number,\n            _name,\n            _importantOrder,\n            _filesEncrypted,\n            msg.sender,\n            _signers,\n            _files\n        );\n    }\n\n    function changeName(bytes32 _hash, string calldata _newName)\n        external\n        onlyTracked(_hash)\n        onlyAuthor(_hash, msg.sender)\n    {\n        require(bytes(_newName).length > 0, \"empty_new_name\");\n        string memory oldName = documents[_hash].name;\n        documents[_hash].name = _newName;\n        emit DocumentNameChanged(_hash, oldName, _newName);\n    }\n\n    function updateSigners(\n        bytes32 _hash,\n        address[] calldata _signers,\n        bool _importantOrder\n    )\n        external\n        onlyTracked(_hash)\n        onlyAuthor(_hash, msg.sender)\n        onlyEditable(_hash)\n    {\n        require(_signers.length > 0, \"empty_signers\");\n        delete documents[_hash].signers;\n        documents[_hash].signers = _signers;\n        documents[_hash].importantOrder = _importantOrder;\n        emit DocumentSignersUpdated(_hash, _signers);\n    }\n\n    function sendDocument(bytes32 _hash)\n        external\n        onlyTracked(_hash)\n        onlyAuthor(_hash, msg.sender)\n        onlyEditable(_hash)\n    {\n        for (uint256 i = 0; i < documents[_hash].signers.length; i++) {\n            documents[_hash].signed[\n                documents[_hash].signers[i]\n            ] = SignatureStatus.AWAITING;\n        }\n        emit DocumentSent(_hash, documents[_hash].signers);\n    }\n\n    function sign(bytes32 _hash)\n        external\n        onlyTracked(_hash)\n        onlySigners(_hash, msg.sender)\n        onlyToSigned(_hash, msg.sender)\n    {\n        Document storage d = documents[_hash];\n\n        if (d.importantOrder) {\n            address actualSigner = d.signers[d.signaturesCount];\n            if (actualSigner != address(0)) {\n                require(actualSigner == msg.sender, \"no_sequence\");\n            }\n        }\n\n        d.signed[msg.sender] = SignatureStatus.SIGNED;\n        d.signaturesCount++;\n        emit DocumentSigned(_hash, msg.sender);\n\n        if (d.importantOrder && d.signaturesCount < d.signers.length) {\n            address nextSigner = d.signers[d.signaturesCount];\n            if (nextSigner != address(0)) {\n                emit DocumentRequiresSignature(_hash, nextSigner);\n            }\n        }\n    }\n\n    function openDocument(bytes32 _hash) external onlyTracked(_hash) {\n        emit DocumentOpened(_hash, msg.sender);\n    }\n\n    function getDocumentStatus(bytes32 _hash)\n        external\n        view\n        onlyTracked(_hash)\n        returns (DocumentStatus, uint256)\n    {\n        if (\n            documents[_hash].signed[documents[_hash].signers[0]] ==\n            SignatureStatus.NOT_INITIALIZED\n        ) {\n            return (DocumentStatus.EDITING, documents[_hash].signaturesCount);\n        } else if (\n            documents[_hash].signaturesCount == documents[_hash].signers.length\n        ) {\n            return (DocumentStatus.FINISHED, documents[_hash].signaturesCount);\n        } else {\n            return (DocumentStatus.SIGNING, documents[_hash].signaturesCount);\n        }\n    }\n\n    function getDocument(bytes32 _hash)\n        external\n        view\n        onlyTracked(_hash)\n        returns (\n            uint256,\n            uint256,\n            bool,\n            address,\n            string memory,\n            address[] memory,\n            DocumentStatus\n        )\n    {\n        Document storage d = documents[_hash];\n        DocumentStatus status;\n        uint256 count;\n        (status, count) = this.getDocumentStatus(_hash);\n        return (\n            d.blockNumber,\n            count,\n            d.importantOrder,\n            d.author,\n            d.name,\n            d.signers,\n            status\n        );\n    }\n\n    modifier onlyTracked(bytes32 _hash) {\n        require(documents[_hash].blockNumber != 0, \"only_tracked\");\n        _;\n    }\n\n    modifier onlySigners(bytes32 _hash, address _signer) {\n        require(\n            documents[_hash].signed[_signer] != SignatureStatus.NOT_INITIALIZED,\n            \"only_signers\"\n        );\n        _;\n    }\n\n    modifier onlyAuthor(bytes32 _hash, address _author) {\n        require(documents[_hash].author == _author, \"only_author\");\n        _;\n    }\n\n    modifier onlyToSigned(bytes32 _hash, address _signer) {\n        require(\n            documents[_hash].signed[_signer] == SignatureStatus.AWAITING,\n            \"not_allowed_to_sign\"\n        );\n        _;\n    }\n\n    modifier onlyEditable(bytes32 _hash) {\n        require(\n            documents[_hash].signed[documents[_hash].signers[0]] ==\n                SignatureStatus.NOT_INITIALIZED,\n            \"not_editable\"\n        );\n        _;\n    }\n}\n",
  "sourcePath": "/truffle/contracts/DocumentManager.sol",
  "compiler": {
    "name": "solc",
    "version": "0.8.9+commit.e5eed63a.Emscripten.clang"
  },
  "schemaVersion": "3.4.1",
  "updatedAt": "2022-01-17T09:34:25.379Z",
  "networkType": "ethereum",
  "devdoc": {
    "kind": "dev",
    "methods": {},
    "version": 1
  },
  "userdoc": {
    "kind": "user",
    "methods": {},
    "version": 1
  }
}