{
  "contractName": "DocumentManager",
  "abi": [
    {
      "anonymous": false,
      "inputs": [
        {
          "indexed": true,
          "internalType": "bytes32",
          "name": "_hash",
          "type": "bytes32"
        },
        {
          "indexed": false,
          "internalType": "uint256",
          "name": "_blockNumber",
          "type": "uint256"
        },
        {
          "indexed": false,
          "internalType": "string",
          "name": "_name",
          "type": "string"
        },
        {
          "indexed": false,
          "internalType": "bool",
          "name": "_importantOrder",
          "type": "bool"
        },
        {
          "indexed": false,
          "internalType": "bool",
          "name": "_filesEncrypted",
          "type": "bool"
        },
        {
          "indexed": true,
          "internalType": "address",
          "name": "_author",
          "type": "address"
        },
        {
          "indexed": false,
          "internalType": "address[]",
          "name": "_signers",
          "type": "address[]"
        },
        {
          "components": [
            {
              "internalType": "bytes32",
              "name": "digest",
              "type": "bytes32"
            },
            {
              "internalType": "uint8",
              "name": "hashFunction",
              "type": "uint8"
            },
            {
              "internalType": "uint8",
              "name": "size",
              "type": "uint8"
            }
          ],
          "indexed": false,
          "internalType": "struct DocumentManager.Multihash[]",
          "name": "_files",
          "type": "tuple[]"
        }
      ],
      "name": "DocumentCreated",
      "type": "event"
    },
    {
      "anonymous": false,
      "inputs": [
        {
          "indexed": true,
          "internalType": "bytes32",
          "name": "_hash",
          "type": "bytes32"
        },
        {
          "indexed": false,
          "internalType": "string",
          "name": "oldName",
          "type": "string"
        },
        {
          "indexed": false,
          "internalType": "string",
          "name": "newName",
          "type": "string"
        }
      ],
      "name": "DocumentNameChanged",
      "type": "event"
    },
    {
      "anonymous": false,
      "inputs": [
        {
          "indexed": true,
          "internalType": "bytes32",
          "name": "_hash",
          "type": "bytes32"
        },
        {
          "indexed": false,
          "internalType": "address",
          "name": "_author",
          "type": "address"
        }
      ],
      "name": "DocumentOpened",
      "type": "event"
    },
    {
      "anonymous": false,
      "inputs": [
        {
          "indexed": false,
          "internalType": "bytes32",
          "name": "_hash",
          "type": "bytes32"
        },
        {
          "indexed": true,
          "internalType": "address",
          "name": "_signer",
          "type": "address"
        }
      ],
      "name": "DocumentRequiresSignature",
      "type": "event"
    },
    {
      "anonymous": false,
      "inputs": [
        {
          "indexed": true,
          "internalType": "bytes32",
          "name": "_hash",
          "type": "bytes32"
        },
        {
          "indexed": false,
          "internalType": "address[]",
          "name": "_signers",
          "type": "address[]"
        }
      ],
      "name": "DocumentSent",
      "type": "event"
    },
    {
      "anonymous": false,
      "inputs": [
        {
          "indexed": false,
          "internalType": "bytes32",
          "name": "_hash",
          "type": "bytes32"
        },
        {
          "indexed": true,
          "internalType": "address",
          "name": "_signer",
          "type": "address"
        }
      ],
      "name": "DocumentSentToSigner",
      "type": "event"
    },
    {
      "anonymous": false,
      "inputs": [
        {
          "indexed": true,
          "internalType": "bytes32",
          "name": "_hash",
          "type": "bytes32"
        },
        {
          "indexed": false,
          "internalType": "address",
          "name": "_author",
          "type": "address"
        }
      ],
      "name": "DocumentSigned",
      "type": "event"
    },
    {
      "anonymous": false,
      "inputs": [
        {
          "indexed": true,
          "internalType": "bytes32",
          "name": "_hash",
          "type": "bytes32"
        },
        {
          "indexed": false,
          "internalType": "address[]",
          "name": "_signers",
          "type": "address[]"
        }
      ],
      "name": "DocumentSignersUpdated",
      "type": "event"
    },
    {
      "inputs": [
        {
          "internalType": "bytes32",
          "name": "_hash",
          "type": "bytes32"
        },
        {
          "internalType": "string",
          "name": "_name",
          "type": "string"
        },
        {
          "internalType": "address[]",
          "name": "_signers",
          "type": "address[]"
        },
        {
          "components": [
            {
              "internalType": "bytes32",
              "name": "digest",
              "type": "bytes32"
            },
            {
              "internalType": "uint8",
              "name": "hashFunction",
              "type": "uint8"
            },
            {
              "internalType": "uint8",
              "name": "size",
              "type": "uint8"
            }
          ],
          "internalType": "struct DocumentManager.Multihash[]",
          "name": "_files",
          "type": "tuple[]"
        },
        {
          "internalType": "bool",
          "name": "_importantOrder",
          "type": "bool"
        },
        {
          "internalType": "bool",
          "name": "_filesEncrypted",
          "type": "bool"
        }
      ],
      "name": "create",
      "outputs": [],
      "stateMutability": "nonpayable",
      "type": "function"
    },
    {
      "inputs": [
        {
          "internalType": "bytes32",
          "name": "_hash",
          "type": "bytes32"
        },
        {
          "internalType": "string",
          "name": "_newName",
          "type": "string"
        }
      ],
      "name": "changeName",
      "outputs": [],
      "stateMutability": "nonpayable",
      "type": "function"
    },
    {
      "inputs": [
        {
          "internalType": "bytes32",
          "name": "_hash",
          "type": "bytes32"
        },
        {
          "internalType": "address[]",
          "name": "_signers",
          "type": "address[]"
        },
        {
          "internalType": "bool",
          "name": "_importantOrder",
          "type": "bool"
        }
      ],
      "name": "updateSigners",
      "outputs": [],
      "stateMutability": "nonpayable",
      "type": "function"
    },
    {
      "inputs": [
        {
          "internalType": "bytes32",
          "name": "_hash",
          "type": "bytes32"
        }
      ],
      "name": "sendDocument",
      "outputs": [],
      "stateMutability": "nonpayable",
      "type": "function"
    },
    {
      "inputs": [
        {
          "internalType": "bytes32",
          "name": "_hash",
          "type": "bytes32"
        }
      ],
      "name": "sign",
      "outputs": [],
      "stateMutability": "nonpayable",
      "type": "function"
    },
    {
      "inputs": [
        {
          "internalType": "bytes32",
          "name": "_hash",
          "type": "bytes32"
        }
      ],
      "name": "openDocument",
      "outputs": [],
      "stateMutability": "nonpayable",
      "type": "function"
    },
    {
      "inputs": [
        {
          "internalType": "bytes32",
          "name": "_hash",
          "type": "bytes32"
        }
      ],
      "name": "getDocumentStatus",
      "outputs": [
        {
          "internalType": "enum DocumentManager.DocumentStatus",
          "name": "",
          "type": "uint8"
        },
        {
          "internalType": "uint256",
          "name": "",
          "type": "uint256"
        }
      ],
      "stateMutability": "view",
      "type": "function",
      "constant": true
    },
    {
      "inputs": [
        {
          "internalType": "bytes32",
          "name": "_hash",
          "type": "bytes32"
        }
      ],
      "name": "getDocument",
      "outputs": [
        {
          "internalType": "uint256",
          "name": "",
          "type": "uint256"
        },
        {
          "internalType": "uint256",
          "name": "",
          "type": "uint256"
        },
        {
          "internalType": "bool",
          "name": "",
          "type": "bool"
        },
        {
          "internalType": "address",
          "name": "",
          "type": "address"
        },
        {
          "internalType": "string",
          "name": "",
          "type": "string"
        },
        {
          "internalType": "address[]",
          "name": "",
          "type": "address[]"
        },
        {
          "internalType": "enum DocumentManager.DocumentStatus",
          "name": "",
          "type": "uint8"
        }
      ],
      "stateMutability": "view",
      "type": "function",
      "constant": true
    }
  ],
  "bytecode": "0x608060405234801561001057600080fd5b50612aed806100206000396000f3fe608060405234801561001057600080fd5b50600436106100885760003560e01c806391cbeeed1161005b57806391cbeeed146100fd578063a316ef8614610119578063acf7618214610135578063b10d6b411461016657610088565b80630523e6171461008d5780634c970668146100a9578063799cd333146100c5578063817293aa146100e1575b600080fd5b6100a760048036038101906100a29190611bff565b61019c565b005b6100c360048036038101906100be9190611afe565b6103d7565b005b6100df60048036038101906100da9190611afe565b6107e4565b005b6100fb60048036038101906100f69190611afe565b610caa565b005b61011760048036038101906101129190611b9f565b610d40565b005b610133600480360381019061012e9190611b2b565b6110ab565b005b61014f600480360381019061014a9190611afe565b6113c0565b60405161015d929190612210565b60405180910390f35b610180600480360381019061017b9190611afe565b611595565b604051610193979695949392919061244e565b60405180910390f35b60008060008b815260200190815260200160002060000154146101f4576040517f08c379a00000000000000000000000000000000000000000000000000000000081526004016101eb90612352565b60405180910390fd5b6000888890501161023a576040517f08c379a000000000000000000000000000000000000000000000000000000000815260040161023190612372565b60405180910390fd5b60008686905011610280576040517f08c379a0000000000000000000000000000000000000000000000000000000008152600401610277906123b2565b60405180910390fd5b600084849050116102c6576040517f08c379a00000000000000000000000000000000000000000000000000000000081526004016102bd90612332565b60405180910390fd5b60008060008b8152602001908152602001600020905043816000018190555088888260030191906102f892919061181a565b50338160020160006101000a81548173ffffffffffffffffffffffffffffffffffffffff021916908373ffffffffffffffffffffffffffffffffffffffff160217905550868682600401919061034f9291906118a0565b50828160020160146101000a81548160ff0219169083151502179055503373ffffffffffffffffffffffffffffffffffffffff168a7f5f86aa80e947935749b097064634d2b33bd36d5a886cc85cc46225b4ca8287c8438c8c88888e8e8e8e6040516103c3999897969594939291906123d2565b60405180910390a350505050505050505050565b806000806000838152602001908152602001600020600001541415610431576040517f08c379a000000000000000000000000000000000000000000000000000000000815260040161042890612312565b60405180910390fd5b81338073ffffffffffffffffffffffffffffffffffffffff1660008084815260200190815260200160002060020160009054906101000a900473ffffffffffffffffffffffffffffffffffffffff1673ffffffffffffffffffffffffffffffffffffffff16146104d6576040517f08c379a00000000000000000000000000000000000000000000000000000000081526004016104cd906122b2565b60405180910390fd5b83600060028111156104eb576104ea612786565b5b600080838152602001908152602001600020600501600080600085815260200190815260200160002060040160008154811061052a576105296127e4565b5b9060005260206000200160009054906101000a900473ffffffffffffffffffffffffffffffffffffffff1673ffffffffffffffffffffffffffffffffffffffff1673ffffffffffffffffffffffffffffffffffffffff16815260200190815260200160002060009054906101000a900460ff1660028111156105af576105ae612786565b5b146105ef576040517f08c379a00000000000000000000000000000000000000000000000000000000081526004016105e6906122f2565b60405180910390fd5b60005b6000808781526020019081526020016000206004018054905081101561079057600160008088815260200190815260200160002060050160008060008a81526020019081526020016000206004018481548110610652576106516127e4565b5b9060005260206000200160009054906101000a900473ffffffffffffffffffffffffffffffffffffffff1673ffffffffffffffffffffffffffffffffffffffff1673ffffffffffffffffffffffffffffffffffffffff16815260200190815260200160002060006101000a81548160ff021916908360028111156106d9576106d8612786565b5b02179055506000808781526020019081526020016000206004018181548110610705576107046127e4565b5b9060005260206000200160009054906101000a900473ffffffffffffffffffffffffffffffffffffffff1673ffffffffffffffffffffffffffffffffffffffff167f3fb7d06d6b39d7862f116ecf1a81205e6c4ecf67b58c175b684b799fc50089a48760405161077591906121f5565b60405180910390a280806107889061270e565b9150506105f2565b50847ff1ec4e03d11d9ed9162f5554880a2a23210b7fed0a351e604abe7b73e826c81b6000808881526020019081526020016000206004016040516107d591906121d3565b60405180910390a25050505050565b80600080600083815260200190815260200160002060000154141561083e576040517f08c379a000000000000000000000000000000000000000000000000000000000815260040161083590612312565b60405180910390fd5b81336000600281111561085457610853612786565b5b60008084815260200190815260200160002060050160008373ffffffffffffffffffffffffffffffffffffffff1673ffffffffffffffffffffffffffffffffffffffff16815260200190815260200160002060009054906101000a900460ff1660028111156108c6576108c5612786565b5b1415610907576040517f08c379a00000000000000000000000000000000000000000000000000000000081526004016108fe90612272565b60405180910390fd5b83336001600281111561091d5761091c612786565b5b60008084815260200190815260200160002060050160008373ffffffffffffffffffffffffffffffffffffffff1673ffffffffffffffffffffffffffffffffffffffff16815260200190815260200160002060009054906101000a900460ff16600281111561098f5761098e612786565b5b146109cf576040517f08c379a00000000000000000000000000000000000000000000000000000000081526004016109c690612392565b60405180910390fd5b600080600088815260200190815260200160002090508060020160149054906101000a900460ff1615610aea57600081600401826001015481548110610a1857610a176127e4565b5b9060005260206000200160009054906101000a900473ffffffffffffffffffffffffffffffffffffffff169050600073ffffffffffffffffffffffffffffffffffffffff168173ffffffffffffffffffffffffffffffffffffffff1614610ae8573373ffffffffffffffffffffffffffffffffffffffff168173ffffffffffffffffffffffffffffffffffffffff1614610ae7576040517f08c379a0000000000000000000000000000000000000000000000000000000008152600401610ade90612292565b60405180910390fd5b5b505b60028160050160003373ffffffffffffffffffffffffffffffffffffffff1673ffffffffffffffffffffffffffffffffffffffff16815260200190815260200160002060006101000a81548160ff02191690836002811115610b4f57610b4e612786565b5b0217905550806001016000815480929190610b699061270e565b9190505550867ffc566ede6102b78343776b8847b3fac426f2ca3c96a1b9ead9faa5994b22b1ed33604051610b9e9190612194565b60405180910390a28060020160149054906101000a900460ff168015610bce575080600401805490508160010154105b15610ca157600081600401826001015481548110610bef57610bee6127e4565b5b9060005260206000200160009054906101000a900473ffffffffffffffffffffffffffffffffffffffff169050600073ffffffffffffffffffffffffffffffffffffffff168173ffffffffffffffffffffffffffffffffffffffff1614610c9f578073ffffffffffffffffffffffffffffffffffffffff167fc1e3af02ea2483b8268571ba3abd2e784a7f63702f268c700829e14752d6f16a89604051610c9691906121f5565b60405180910390a25b505b50505050505050565b806000806000838152602001908152602001600020600001541415610d04576040517f08c379a0000000000000000000000000000000000000000000000000000000008152600401610cfb90612312565b60405180910390fd5b817fd420121be47295bb601834d30fb33e15cd73af19f67ecd5a533b96ee644a6ab133604051610d349190612194565b60405180910390a25050565b826000806000838152602001908152602001600020600001541415610d9a576040517f08c379a0000000000000000000000000000000000000000000000000000000008152600401610d9190612312565b60405180910390fd5b83338073ffffffffffffffffffffffffffffffffffffffff1660008084815260200190815260200160002060020160009054906101000a900473ffffffffffffffffffffffffffffffffffffffff1673ffffffffffffffffffffffffffffffffffffffff1614610e3f576040517f08c379a0000000000000000000000000000000000000000000000000000000008152600401610e36906122b2565b60405180910390fd5b8560006002811115610e5457610e53612786565b5b6000808381526020019081526020016000206005016000806000858152602001908152602001600020600401600081548110610e9357610e926127e4565b5b9060005260206000200160009054906101000a900473ffffffffffffffffffffffffffffffffffffffff1673ffffffffffffffffffffffffffffffffffffffff1673ffffffffffffffffffffffffffffffffffffffff16815260200190815260200160002060009054906101000a900460ff166002811115610f1857610f17612786565b5b14610f58576040517f08c379a0000000000000000000000000000000000000000000000000000000008152600401610f4f906122f2565b60405180910390fd5b60008686905011610f9e576040517f08c379a0000000000000000000000000000000000000000000000000000000008152600401610f95906122d2565b60405180910390fd5b60008060008981526020019081526020016000206003018054610fc0906126c2565b80601f0160208091040260200160405190810160405280929190818152602001828054610fec906126c2565b80156110395780601f1061100e57610100808354040283529160200191611039565b820191906000526020600020905b81548152906001019060200180831161101c57829003601f168201915b5050505050905086866000808b8152602001908152602001600020600301919061106492919061181a565b50877f9ef4996d1ffd8fe2ea156016214459380c858e8834a2b940e5b6af758ac8227382898960405161109993929190612239565b60405180910390a25050505050505050565b836000806000838152602001908152602001600020600001541415611105576040517f08c379a00000000000000000000000000000000000000000000000000000000081526004016110fc90612312565b60405180910390fd5b84338073ffffffffffffffffffffffffffffffffffffffff1660008084815260200190815260200160002060020160009054906101000a900473ffffffffffffffffffffffffffffffffffffffff1673ffffffffffffffffffffffffffffffffffffffff16146111aa576040517f08c379a00000000000000000000000000000000000000000000000000000000081526004016111a1906122b2565b60405180910390fd5b86600060028111156111bf576111be612786565b5b60008083815260200190815260200160002060050160008060008581526020019081526020016000206004016000815481106111fe576111fd6127e4565b5b9060005260206000200160009054906101000a900473ffffffffffffffffffffffffffffffffffffffff1673ffffffffffffffffffffffffffffffffffffffff1673ffffffffffffffffffffffffffffffffffffffff16815260200190815260200160002060009054906101000a900460ff16600281111561128357611282612786565b5b146112c3576040517f08c379a00000000000000000000000000000000000000000000000000000000081526004016112ba906122f2565b60405180910390fd5b60008787905011611309576040517f08c379a0000000000000000000000000000000000000000000000000000000008152600401611300906123b2565b60405180910390fd5b600080898152602001908152602001600020600401600061132a9190611940565b86866000808b8152602001908152602001600020600401919061134e9291906118a0565b50846000808a815260200190815260200160002060020160146101000a81548160ff021916908315150217905550877f9a3682ec2ea5eec5361a73a5e8e5c2bcf88dcf4b2a9fe8f37d751688a9224cc088886040516113ae9291906121af565b60405180910390a25050505050505050565b60008082600080600083815260200190815260200160002060000154141561141d576040517f08c379a000000000000000000000000000000000000000000000000000000000815260040161141490612312565b60405180910390fd5b6000600281111561143157611430612786565b5b60008086815260200190815260200160002060050160008060008881526020019081526020016000206004016000815481106114705761146f6127e4565b5b9060005260206000200160009054906101000a900473ffffffffffffffffffffffffffffffffffffffff1673ffffffffffffffffffffffffffffffffffffffff1673ffffffffffffffffffffffffffffffffffffffff16815260200190815260200160002060009054906101000a900460ff1660028111156114f5576114f4612786565b5b141561151c576000806000868152602001908152602001600020600101549250925061158f565b60008085815260200190815260200160002060040180549050600080868152602001908152602001600020600101541415611572576002600080868152602001908152602001600020600101549250925061158f565b600160008086815260200190815260200160002060010154925092505b50915091565b60008060008060608060008760008060008381526020019081526020016000206000015414156115fa576040517f08c379a00000000000000000000000000000000000000000000000000000000081526004016115f190612312565b60405180910390fd5b60008060008b815260200190815260200160002090506000803073ffffffffffffffffffffffffffffffffffffffff1663acf761828d6040518263ffffffff1660e01b815260040161164c91906121f5565b604080518083038186803b15801561166357600080fd5b505afa158015611677573d6000803e3d6000fd5b505050506040513d601f19601f8201168201806040525081019061169b9190611cee565b80925081935050508260000154818460020160149054906101000a900460ff168560020160009054906101000a900473ffffffffffffffffffffffffffffffffffffffff168660030187600401878280546116f5906126c2565b80601f0160208091040260200160405190810160405280929190818152602001828054611721906126c2565b801561176e5780601f106117435761010080835404028352916020019161176e565b820191906000526020600020905b81548152906001019060200180831161175157829003601f168201915b50505050509250818054806020026020016040519081016040528092919081815260200182805480156117f657602002820191906000526020600020905b8160009054906101000a900473ffffffffffffffffffffffffffffffffffffffff1673ffffffffffffffffffffffffffffffffffffffff16815260200190600101908083116117ac575b505050505091509a509a509a509a509a509a509a5050505050919395979092949650565b828054611826906126c2565b90600052602060002090601f016020900481019282611848576000855561188f565b82601f1061186157803560ff191683800117855561188f565b8280016001018555821561188f579182015b8281111561188e578235825591602001919060010190611873565b5b50905061189c9190611961565b5090565b82805482825590600052602060002090810192821561192f579160200282015b8281111561192e57823573ffffffffffffffffffffffffffffffffffffffff168260006101000a81548173ffffffffffffffffffffffffffffffffffffffff021916908373ffffffffffffffffffffffffffffffffffffffff160217905550916020019190600101906118c0565b5b50905061193c9190611961565b5090565b508054600082559060005260206000209081019061195e9190611961565b50565b5b8082111561197a576000816000905550600101611962565b5090565b60008135905061198d81612a34565b92915050565b60008083601f8401126119a9576119a861282b565b5b8235905067ffffffffffffffff8111156119c6576119c5612826565b5b6020830191508360208202830111156119e2576119e1612830565b5b9250929050565b60008083601f8401126119ff576119fe61282b565b5b8235905067ffffffffffffffff811115611a1c57611a1b612826565b5b602083019150836060820283011115611a3857611a37612830565b5b9250929050565b600081359050611a4e81612a4b565b92915050565b600081359050611a6381612a62565b92915050565b600081519050611a7881612a79565b92915050565b60008083601f840112611a9457611a9361282b565b5b8235905067ffffffffffffffff811115611ab157611ab0612826565b5b602083019150836001820283011115611acd57611acc612830565b5b9250929050565b600081519050611ae381612a89565b92915050565b600081359050611af881612aa0565b92915050565b600060208284031215611b1457611b1361283a565b5b6000611b2284828501611a54565b91505092915050565b60008060008060608587031215611b4557611b4461283a565b5b6000611b5387828801611a54565b945050602085013567ffffffffffffffff811115611b7457611b73612835565b5b611b8087828801611993565b93509350506040611b9387828801611a3f565b91505092959194509250565b600080600060408486031215611bb857611bb761283a565b5b6000611bc686828701611a54565b935050602084013567ffffffffffffffff811115611be757611be6612835565b5b611bf386828701611a7e565b92509250509250925092565b600080600080600080600080600060c08a8c031215611c2157611c2061283a565b5b6000611c2f8c828d01611a54565b99505060208a013567ffffffffffffffff811115611c5057611c4f612835565b5b611c5c8c828d01611a7e565b985098505060408a013567ffffffffffffffff811115611c7f57611c7e612835565b5b611c8b8c828d01611993565b965096505060608a013567ffffffffffffffff811115611cae57611cad612835565b5b611cba8c828d016119e9565b94509450506080611ccd8c828d01611a3f565b92505060a0611cde8c828d01611a3f565b9150509295985092959850929598565b60008060408385031215611d0557611d0461283a565b5b6000611d1385828601611a69565b9250506020611d2485828601611ad4565b9150509250929050565b6000611d3a8383611d5e565b60208301905092915050565b6000611d52838361211c565b60608301905092915050565b611d67816125fc565b82525050565b611d76816125fc565b82525050565b6000611d888385612559565b9350611d93826124cb565b8060005b85811015611dcc57611da9828461258c565b611db38882611d2e565b9750611dbe83612525565b925050600181019050611d97565b5085925050509392505050565b6000611de482612504565b611dee8185612559565b9350611df9836124d5565b8060005b83811015611e2a578151611e118882611d2e565b9750611e1c83612532565b925050600181019050611dfd565b5085935050505092915050565b6000611e428261250f565b611e4c8185612559565b9350611e57836124e5565b8060005b83811015611e8f57611e6c82612813565b611e768882611d2e565b9750611e818361253f565b925050600181019050611e5b565b5085935050505092915050565b6000611ea8838561256a565b9350611eb3826124fa565b8060005b85811015611eec57611ec982846125ba565b611ed38882611d46565b9750611ede8361254c565b925050600181019050611eb7565b5085925050509392505050565b611f028161260e565b82525050565b611f118161261a565b82525050565b611f208161261a565b82525050565b611f2f8161266e565b82525050565b6000611f41838561257b565b9350611f4e838584612680565b611f578361283f565b840190509392505050565b6000611f6d8261251a565b611f77818561257b565b9350611f8781856020860161268f565b611f908161283f565b840191505092915050565b6000611fa8600c8361257b565b9150611fb38261285d565b602082019050919050565b6000611fcb600b8361257b565b9150611fd682612886565b602082019050919050565b6000611fee600b8361257b565b9150611ff9826128af565b602082019050919050565b6000612011600e8361257b565b915061201c826128d8565b602082019050919050565b6000612034600c8361257b565b915061203f82612901565b602082019050919050565b6000612057600c8361257b565b91506120628261292a565b602082019050919050565b600061207a600b8361257b565b915061208582612953565b602082019050919050565b600061209d600f8361257b565b91506120a88261297c565b602082019050919050565b60006120c0600a8361257b565b91506120cb826129a5565b602082019050919050565b60006120e360138361257b565b91506120ee826129ce565b602082019050919050565b6000612106600d8361257b565b9150612111826129f7565b602082019050919050565b6060820161212d60008301836125a3565b61213a6000850182611f08565b5061214860208301836125c5565b6121556020850182612185565b5061216360408301836125c5565b6121706040850182612185565b50505050565b61217f81612657565b82525050565b61218e81612661565b82525050565b60006020820190506121a96000830184611d6d565b92915050565b600060208201905081810360008301526121ca818486611d7c565b90509392505050565b600060208201905081810360008301526121ed8184611e37565b905092915050565b600060208201905061220a6000830184611f17565b92915050565b60006040820190506122256000830185611f26565b6122326020830184612176565b9392505050565b600060408201905081810360008301526122538186611f62565b90508181036020830152612268818486611f35565b9050949350505050565b6000602082019050818103600083015261228b81611f9b565b9050919050565b600060208201905081810360008301526122ab81611fbe565b9050919050565b600060208201905081810360008301526122cb81611fe1565b9050919050565b600060208201905081810360008301526122eb81612004565b9050919050565b6000602082019050818103600083015261230b81612027565b9050919050565b6000602082019050818103600083015261232b8161204a565b9050919050565b6000602082019050818103600083015261234b8161206d565b9050919050565b6000602082019050818103600083015261236b81612090565b9050919050565b6000602082019050818103600083015261238b816120b3565b9050919050565b600060208201905081810360008301526123ab816120d6565b9050919050565b600060208201905081810360008301526123cb816120f9565b9050919050565b600060c0820190506123e7600083018c612176565b81810360208301526123fa818a8c611f35565b90506124096040830189611ef9565b6124166060830188611ef9565b8181036080830152612429818688611d7c565b905081810360a083015261243e818486611e9c565b90509a9950505050505050505050565b600060e082019050612463600083018a612176565b6124706020830189612176565b61247d6040830188611ef9565b61248a6060830187611d6d565b818103608083015261249c8186611f62565b905081810360a08301526124b08185611dd9565b90506124bf60c0830184611f26565b98975050505050505050565b6000819050919050565b6000819050602082019050919050565b60008190508160005260206000209050919050565b6000819050919050565b600081519050919050565b600081549050919050565b600081519050919050565b6000602082019050919050565b6000602082019050919050565b6000600182019050919050565b6000606082019050919050565b600082825260208201905092915050565b600082825260208201905092915050565b600082825260208201905092915050565b600061259b602084018461197e565b905092915050565b60006125b26020840184611a54565b905092915050565b600082905092915050565b60006125d46020840184611ae9565b905092915050565b600073ffffffffffffffffffffffffffffffffffffffff82169050919050565b600061260782612637565b9050919050565b60008115159050919050565b6000819050919050565b600081905061263282612a20565b919050565b600073ffffffffffffffffffffffffffffffffffffffff82169050919050565b6000819050919050565b600060ff82169050919050565b600061267982612624565b9050919050565b82818337600083830152505050565b60005b838110156126ad578082015181840152602081019050612692565b838111156126bc576000848401525b50505050565b600060028204905060018216806126da57607f821691505b602082108114156126ee576126ed6127b5565b5b50919050565b600061270761270283612850565b6125dc565b9050919050565b600061271982612657565b91507fffffffffffffffffffffffffffffffffffffffffffffffffffffffffffffffff82141561274c5761274b612757565b5b600182019050919050565b7f4e487b7100000000000000000000000000000000000000000000000000000000600052601160045260246000fd5b7f4e487b7100000000000000000000000000000000000000000000000000000000600052602160045260246000fd5b7f4e487b7100000000000000000000000000000000000000000000000000000000600052602260045260246000fd5b7f4e487b7100000000000000000000000000000000000000000000000000000000600052603260045260246000fd5b600061281f82546126f4565b9050919050565b600080fd5b600080fd5b600080fd5b600080fd5b600080fd5b6000601f19601f8301169050919050565b60008160001c9050919050565b7f6f6e6c795f7369676e6572730000000000000000000000000000000000000000600082015250565b7f6e6f5f73657175656e6365000000000000000000000000000000000000000000600082015250565b7f6f6e6c795f617574686f72000000000000000000000000000000000000000000600082015250565b7f656d7074795f6e65775f6e616d65000000000000000000000000000000000000600082015250565b7f6e6f745f6564697461626c650000000000000000000000000000000000000000600082015250565b7f6f6e6c795f747261636b65640000000000000000000000000000000000000000600082015250565b7f656d7074795f66696c6573000000000000000000000000000000000000000000600082015250565b7f616c72656164795f747261636b65640000000000000000000000000000000000600082015250565b7f656d7074795f6e616d6500000000000000000000000000000000000000000000600082015250565b7f6e6f745f616c6c6f7765645f746f5f7369676e00000000000000000000000000600082015250565b7f656d7074795f7369676e65727300000000000000000000000000000000000000600082015250565b60038110612a3157612a30612786565b5b50565b612a3d816125fc565b8114612a4857600080fd5b50565b612a548161260e565b8114612a5f57600080fd5b50565b612a6b8161261a565b8114612a7657600080fd5b50565b60038110612a8657600080fd5b50565b612a9281612657565b8114612a9d57600080fd5b50565b612aa981612661565b8114612ab457600080fd5b5056fea264697066735822122031cfe0cb5e0b96d5b51754aab21bb8022c41e730b1cdfd7ae538d1996e71fbe964736f6c63430008070033",
  "immutableReferences": {},
  "source": "// SPDX-License-Identifier: GPL-3.0\npragma solidity ^0.8.0;\n\ncontract DocumentManager {\n    enum DocumentStatus {\n        EDITING,\n        SIGNING,\n        FINISHED\n    }\n    enum SignatureStatus {\n        NOT_INITIALIZED,\n        AWAITING,\n        SIGNED\n    }\n\n    struct Multihash {\n        bytes32 digest;\n        uint8 hashFunction;\n        uint8 size;\n    }\n\n    struct Document {\n        uint256 blockNumber;\n        uint256 signaturesCount;\n        address author;\n        bool importantOrder;\n        string name;\n        address[] signers;\n        mapping(address => SignatureStatus) signed;\n    }\n\n    event DocumentCreated(\n        bytes32 indexed _hash,\n        uint256 _blockNumber,\n        string _name,\n        bool _importantOrder,\n        bool _filesEncrypted,\n        address indexed _author,\n        address[] _signers,\n        Multihash[] _files\n    );\n    event DocumentSigned(bytes32 indexed _hash, address _author);\n    event DocumentOpened(bytes32 indexed _hash, address _author);\n    event DocumentNameChanged(\n        bytes32 indexed _hash,\n        string oldName,\n        string newName\n    );\n    event DocumentSignersUpdated(bytes32 indexed _hash, address[] _signers);\n    event DocumentSent(bytes32 indexed _hash, address[] _signers);\n    event DocumentSentToSigner(bytes32 _hash, address indexed _signer);\n    event DocumentRequiresSignature(bytes32 _hash, address indexed _signer);\n\n    mapping(bytes32 => Document) documents;\n\n    function create(\n        bytes32 _hash,\n        string calldata _name,\n        address[] calldata _signers,\n        Multihash[] calldata _files,\n        bool _importantOrder,\n        bool _filesEncrypted\n    ) external {\n        require(documents[_hash].blockNumber == 0, \"already_tracked\");\n        require(bytes(_name).length > 0, \"empty_name\");\n        require(_signers.length > 0, \"empty_signers\");\n        require(_files.length > 0, \"empty_files\");\n        Document storage d = documents[_hash];\n        d.blockNumber = block.number;\n        d.name = _name;\n        d.author = msg.sender;\n        d.signers = _signers;\n        d.importantOrder = _importantOrder;\n        emit DocumentCreated(\n            _hash,\n            block.number,\n            _name,\n            _importantOrder,\n            _filesEncrypted,\n            msg.sender,\n            _signers,\n            _files\n        );\n    }\n\n    function changeName(bytes32 _hash, string calldata _newName)\n        external\n        onlyTracked(_hash)\n        onlyAuthor(_hash, msg.sender)\n        onlyEditable(_hash)\n    {\n        require(bytes(_newName).length > 0, \"empty_new_name\");\n        string memory oldName = documents[_hash].name;\n        documents[_hash].name = _newName;\n        emit DocumentNameChanged(_hash, oldName, _newName);\n    }\n\n    function updateSigners(\n        bytes32 _hash,\n        address[] calldata _signers,\n        bool _importantOrder\n    )\n        external\n        onlyTracked(_hash)\n        onlyAuthor(_hash, msg.sender)\n        onlyEditable(_hash)\n    {\n        require(_signers.length > 0, \"empty_signers\");\n        delete documents[_hash].signers;\n        documents[_hash].signers = _signers;\n        documents[_hash].importantOrder = _importantOrder;\n        emit DocumentSignersUpdated(_hash, _signers);\n    }\n\n    function sendDocument(bytes32 _hash)\n        external\n        onlyTracked(_hash)\n        onlyAuthor(_hash, msg.sender)\n        onlyEditable(_hash)\n    {\n        for (uint256 i = 0; i < documents[_hash].signers.length; i++) {\n            documents[_hash].signed[\n                documents[_hash].signers[i]\n            ] = SignatureStatus.AWAITING;\n            emit DocumentSentToSigner(_hash, documents[_hash].signers[i]);\n        }\n        emit DocumentSent(_hash, documents[_hash].signers);\n    }\n\n    function sign(bytes32 _hash)\n        external\n        onlyTracked(_hash)\n        onlySigners(_hash, msg.sender)\n        onlyToSigned(_hash, msg.sender)\n    {\n        Document storage d = documents[_hash];\n\n        if (d.importantOrder) {\n            address actualSigner = d.signers[d.signaturesCount];\n            if (actualSigner != address(0)) {\n                require(actualSigner == msg.sender, \"no_sequence\");\n            }\n        }\n\n        d.signed[msg.sender] = SignatureStatus.SIGNED;\n        d.signaturesCount++;\n        emit DocumentSigned(_hash, msg.sender);\n\n        if (d.importantOrder && d.signaturesCount < d.signers.length) {\n            address nextSigner = d.signers[d.signaturesCount];\n            if (nextSigner != address(0)) {\n                emit DocumentRequiresSignature(_hash, nextSigner);\n            }\n        }\n    }\n\n    function openDocument(bytes32 _hash) external onlyTracked(_hash) {\n        emit DocumentOpened(_hash, msg.sender);\n    }\n\n    function getDocumentStatus(bytes32 _hash)\n        external\n        view\n        onlyTracked(_hash)\n        returns (DocumentStatus, uint256)\n    {\n        if (\n            documents[_hash].signed[documents[_hash].signers[0]] ==\n            SignatureStatus.NOT_INITIALIZED\n        ) {\n            return (DocumentStatus.EDITING, documents[_hash].signaturesCount);\n        } else if (\n            documents[_hash].signaturesCount == documents[_hash].signers.length\n        ) {\n            return (DocumentStatus.FINISHED, documents[_hash].signaturesCount);\n        } else {\n            return (DocumentStatus.SIGNING, documents[_hash].signaturesCount);\n        }\n    }\n\n    function getDocument(bytes32 _hash)\n        external\n        view\n        onlyTracked(_hash)\n        returns (\n            uint256,\n            uint256,\n            bool,\n            address,\n            string memory,\n            address[] memory,\n            DocumentStatus\n        )\n    {\n        Document storage d = documents[_hash];\n        DocumentStatus status;\n        uint256 count;\n        (status, count) = this.getDocumentStatus(_hash);\n        return (\n            d.blockNumber,\n            count,\n            d.importantOrder,\n            d.author,\n            d.name,\n            d.signers,\n            status\n        );\n    }\n\n    modifier onlyTracked(bytes32 _hash) {\n        require(documents[_hash].blockNumber != 0, \"only_tracked\");\n        _;\n    }\n\n    modifier onlySigners(bytes32 _hash, address _signer) {\n        require(\n            documents[_hash].signed[_signer] != SignatureStatus.NOT_INITIALIZED,\n            \"only_signers\"\n        );\n        _;\n    }\n\n    modifier onlyAuthor(bytes32 _hash, address _author) {\n        require(documents[_hash].author == _author, \"only_author\");\n        _;\n    }\n\n    modifier onlyToSigned(bytes32 _hash, address _signer) {\n        require(\n            documents[_hash].signed[_signer] == SignatureStatus.AWAITING,\n            \"not_allowed_to_sign\"\n        );\n        _;\n    }\n\n    modifier onlyEditable(bytes32 _hash) {\n        require(\n            documents[_hash].signed[documents[_hash].signers[0]] ==\n                SignatureStatus.NOT_INITIALIZED,\n            \"not_editable\"\n        );\n        _;\n    }\n}\n",
  "sourcePath": "/truffle/contracts/DocumentManager.sol",
  "compiler": {
    "name": "solc",
    "version": "0.8.7+commit.e28d00a7.Emscripten.clang"
  },
  "schemaVersion": "3.4.4",
  "updatedAt": "2022-01-23T22:12:28.399Z",
  "networkType": "ethereum",
  "devdoc": {
    "kind": "dev",
    "methods": {},
    "version": 1
  },
  "userdoc": {
    "kind": "user",
    "methods": {},
    "version": 1
  }
}